:020000040000FA
:1000000078090020DD000000E5000000E7000000A6
:10001000E9000000EB000000ED000000000000001F
:10002000000000000000000000000000EF000000E1
:10003000F100000000000000F3000000F5000000E7
:1000400000F002F800F03AF80AA090E8000C8244B0
:100050008344AAF10107DA4501D100F02FF8AFF28D
:10006000090EBAE80F0013F0010F18BFFB1A43F096
:1000700001031847080F0000280F0000103A24BFA2
:1000800078C878C1FAD8520724BF30C830C144BFFD
:1000900004680C607047000000230024002500263F
:1000A000103A28BF78C1FBD8520728BF30C148BFDB
:1000B0000B6070471FB51FBD10B510BD00F07BF978
:1000C0001146FFF7F7FF00F043FD00F044FF03B4D3
:1000D000FFF7F2FF03BC00F049FF0000094880472A
:1000E00009480047FEE7FEE7FEE7FEE7FEE7FEE71A
:1000F000FEE7FEE7FEE7FEE704480549054A044B34
:100100007047000019010000410000007805002040
:1001100078090020780900204D484CF22051C18117
:100120004DF62811C1814FF4E971018049494FF41E
:100130008810486448480621017000214170C27847
:1001400002F03F0242F02002C270017141718179D8
:10015000C906FCD5817911F00C0FFBD1704730B581
:100160003D4908783D4A83094FF400404FF00104AF
:100170000FD00B78B4EB931F58D14A78D2075ED0DA
:10018000087AC0F3420104FA01F03549B1FBF0F0FE
:1001900055E04B795B063ED40B785B0710D40B7BA4
:1001A000DB0700D110460A78C2F3C20204FA02F259
:1001B000D2B2B0FBF2F04A7812F0300F00D0400912
:1001C000C97801F0E00111F01F0F38D14911082959
:1001D00035D2DFE801F004070B0F13171A1D00EBEF
:1001E000800005E000EB8000000228E0C0EB00107A
:1001F000C00124E000EB8000400220E04FF43771A2
:1002000048431CE04FF4B761FAE740F69501F7E781
:1002100040F67131F4E70879497900F01F00401C7D
:10022000B2FBF0F001F01F011831E9E70B7802256D
:10023000B5EB931F0BD1097BC90700D110460549C7
:10024000496C04EB1171B0FBF1F00649086030BD58
:1002500000200540008004400040064000127A0063
:1002600000093D00000000204E48017841F0700177
:100270000170017841F08001017001780906FCD518
:10028000007810F0710000D004207047464948689B
:1002900040F400204860886840F4002088604348AB
:1002A0004CF22052C2814DF62812C28100220280F7
:1002B0003C4802789206027802D542F020020AE019
:1002C000D206027802D542F0100204E0520603D5AD
:1002D000027842F040020270486820F01000486046
:1002E000886820F010008860704710B5002302E095
:1002F000C45CD4545B1C8B42FAD310BD2DE9F04191
:10030000C40228480F4606211546C17100268046C2
:100310001DE0210C88F80610210A88F8051088F8DD
:100320000440E97888F80B10A97888F80A106978F1
:1003300088F8091015F8041B88F80810241DFFF729
:1003400093FF10B10420BDE8F081361DB6B2BE4265
:10035000DFD30020F7E7134A10B50623D371030C4F
:100360009371030A53711071080ED072080C9072C9
:10037000080A50721172FFF777FF002800D004209E
:1003800010BD084910B5C0020922CA71020C8A7159
:10039000020A4A710871FFF767FF002800D00420A5
:1003A00010BD00000000024000F0014000200540A8
:1003B000704770477047754600F0D4FDAE460500A3
:1003C0006946534620F00700854618B020B5FFF770
:1003D00093FEBDE820404FF000064FF000074FF0BD
:1003E00000084FF0000B21F00701AC46ACE8C00953
:1003F000ACE8C009ACE8C009ACE8C0098D4670475C
:10040000FFFFFFFFFFFFFFFFFFFFFFFFFEFFFFFFFD
:10041000F0B50179002201F0070C051DCE4ECF4F3B
:10042000CF491446BCF1050F21D2DFE80CF00309D7
:100430000F151B004A6B42F480624A63324616E095
:100440004A6B42F400624A633A4610E04A6B42F457
:1004500080524A63C34A0AE04A6B42F400524A633C
:10046000C14A04E08A6A42F480628A62BF4A2B88E9
:10047000C3F3821CBCF1050F21D2DFE80CF00309A5
:100480000F151B008B6B43F400738B63B84C16E0A5
:100490008B6B43F480638B63B64C10E08B6B43F43F
:1004A00000638B63B44C0AE08B6B43F480538B6323
:1004B000B24C04E08B6B43F400538B63B04C2B685D
:1004C000C3F3843354F823C02CF4E06C44F823C005
:1004D000D5F800C0CCF3843354F823E0CCF3C20C3D
:1004E0004EEA0C2C44F823C02B88C3F3442354F861
:1004F00023C02CF4E06C44F823C02D88C5F34423BA
:1005000054F823C0C5F3C2054CEA052544F823502E
:10051000496C9C4BC1F30361491C1B68B242B3FB9D
:10052000F1F101D0BA4200D1194603681801B1FBBC
:10053000F0F04900B1FBF3F1434201EB43111378B2
:10054000C0F30424234313705070907A01F01F010C
:1005500008439072D07820F00C00D070907820F092
:1005600010009070907820F002009070507920F088
:1005700020005071D07840F00C00D070F0BD30B544
:10058000814D836800215C1B754AAB4230D005DC8D
:100590007E4C1C1907D0402C0FD109E0402C2CD0E8
:1005A000802C0AD12EE07249946B44F4007403E06D
:1005B0007049946B44F480649463028851F822403B
:1005C00024F4E06441F82240028851F8224044F4C7
:1005D000807441F8224004790122072C17D0082C9E
:1005E00015D0042C3DD0052C3BD0062C39D066E02C
:1005F0006149946B44F40064DEE76049946B44F411
:100600008054D9E75E49946B44F40054D4E75C69A4
:10061000057802FA05F52C435C61048851F82450F2
:1006200025F0020541F824508478012C1C680578D7
:1006300002FA05F207D094431C600279072A04D01D
:10064000082A08D03BE01443F6E7028851F822302C
:1006500043F0200331E0028851F8223023F02003D8
:100660002BE05C690578AA4094435C610279042A16
:1006700004D0052A08D0062A13D020E0028851F8B9
:10068000223023F0020318E0028851F8223043F0B0
:10069000020341F82230028851F8223023F001038E
:1006A0000BE0028851F8223043F0020341F8223077
:1006B000028851F8223043F0010341F822300288C9
:1006C00051F8223023F4702341F82230028851F887
:1006D0002230C0784FF4702404EA0040034341F80C
:1006E000223030BD0EB5FFF73AFDFFF7CFFD2648AB
:1006F000803802900320ADF8000001208DF8020040
:1007000000208DF8030006208DF804006846FFF7EE
:1007100036FF4FF4E130009044F2104001906846FB
:10072000FFF776FE0EBD0C490A791206FCD5C8719A
:10073000704709490A79920603D5C97901700120E9
:10074000704700207047104880380069C008C00713
:1007500000D001207047000000A0064000B0064015
:100760000080044000C0064000D0064000A00E40BB
:100770000090044000A0044000B0044000C00440C9
:1007800000D004400000002080F00F400010F0BFB7
:100790002DE9F04F4FF0000BADF2244D9F4C8046F9
:1007A0004FF48040CDF808B460605D465F464FF47A
:1007B00080094FF0FF3ACDF810B400264A460DF2FA
:1007C0000C41684600F0CAF888B101286DD0002FAE
:1007D00000DD6D1C052D69DD1820FFF7A4FF182032
:1007E000FFF7A1FF00200DF2244DBDE8F08FDDF8EA
:1007F0000C240025524507D042B19DF80100F1B20A
:1008000088420BD01520A6E00620E9E70620FFF776
:100810008AFFDDF810040028CFD066E046B10DF164
:100820000301404600F020FB0027C4F8108077E069
:100830009DF80300C0B300210DF10300784B02E0E6
:100840005A54401C491C02780AB1FF29F8DD03F80C
:1008500001B000215F46401C0DF2144302E05A54DF
:10086000401C491C0278202A01D01029F7DB5F5474
:100870000DF58161184600F0D5F8DDF80804B0F5F3
:10088000703F07DB1820FFF74EFF1820FFF74BFFE4
:100890005046A8E741054FEAE07100EB515006D001
:1008A000012101EBE02003E01CE04AE052E0C0122D
:1008B000C4E9027038460AE062886168B1FBF2F16F
:1008C0000844FFF75EFD2770A068401CA060E16847
:1008D000884202D221780029EED00620FFF723FFBC
:1008E000432029E00620FFF71EFFDDF808047AE721
:1008F00021690968FFF72FFD616820690A680368AC
:100900009A4208D01820FFF70EFF1820FFF70BFFC0
:100910006FF0010067E7091D001D61603F1D206148
:10092000DDF80C04874206DADDF80814606801F58A
:1009300080418842DCD30620FFF7F5FE761C0127B4
:100940003CE71820FFF7EFFE1820FFF7ECFE6FF0F2
:10095000020048E74320FFF7E6FE2FE72DE9F84FB6
:10096000884600210646C8F800109246114668469F
:1009700000F040F84FF0FF39B0BB9DF80000182898
:1009800014D006DC012809D0022809D004282BD174
:100990002EE0412816D0612826D113E0802401E002
:1009A0004FF4806401253070671D15E0514668469C
:1009B00000F020F8C0B99DF80000182814D1C8F83C
:1009C000009015E00120BDE8F88F7019514600F045
:1009D00011F848B96D1CADB2BD42F6D3B17870784C
:1009E00081F0FF01884201D04846ECE7C8F800409A
:1009F0000020E8E738B50C46054604E06846FFF7F6
:100A000098FE012804D0641EF8D24FF0FF3038BDA4
:100A10009DF800002870002038BD00000400002070
:100A20001800002070B5002204781346302C04D141
:100A30004478782C0AD0582C08D06FF02F05845CAD
:100A400074B36B2C2ED04B2C2CD030E082780AB3B0
:100A50000224025D5AB1A2F14105052D0AD9A2F185
:100A60006106052E06D91135092D07D913E001209D
:100A70000B6011E0A2F13006092E01D8303A04E0F3
:100A8000052D01D8373A00E0573A641C02EB0313F6
:100A90000B2CDED302E000200B2C00D3002070BD15
:100AA0000B6002E01AB1980207E0012015E06D2CFE
:100AB00001D04D2C03D112B118050860F5E7A4F15F
:100AC0003006092E08D803EB830305EB4303521CC1
:100AD00023440B2AB3D3E1E700200B2ADED270BDFA
:100AE00010B5044603E000BFFFF71DFE641C20782C
:100AF0000028F9D110BD70B54FF480456C6831A065
:100B0000FFF7EEFF286880F30888A446BDE8704030
:100B1000604710B52FA0FFF7E3FF3D48FFF738FE11
:100B2000002805DD3B48FFF7DBFFBDE81040E2E7AA
:100B3000411C07D0811C07D0C01C07D036A0BDE8DF
:100B40001040CDE73CA0FAE74BA0F8E751A0F6E74C
:100B500008B5FFF7C7FD4FF480400468601C05D05E
:100B6000FFF7F1FD10B1FFF7C6FFF7E74FA0FFF762
:100B7000B7FF5AA0FFF7B4FF64A0FFF7B1FF6FA063
:100B8000FFF7AEFF79A0FFF7ABFF84A0FFF7A8FF48
:100B90008EA0FFF7A5FF99A00BE06846FFF7C9FDFF
:100BA0000028FAD09DF80000312805D0322806D060
:100BB0009EA0FFF795FFF0E7FFF7ABFFEDE7FFF72C
:100BC0009AFFEAE70D0A476F20746F204170692190
:100BD0000D0A00000D0AC7EBCAB9D3C3596D6F6483
:100BE000656DD0ADD2E9B4ABCBCD42696ECEC4BC9D
:100BF000FE2E2E2E2E2E2E2E2E2870726573732012
:100C000027612720746F2061626F7274290D0A00BA
:100C100018010020180000200A0D4661696C656407
:100C200020746F207265636569766520746865203D
:100C300066696C65210A0D000A0A0D546865206911
:100C40006D6167652073697A6520697320686967DB
:100C5000686572207468616E2074686520616C6CD0
:100C60006F776564207370616365206D656D6F7269
:100C700079210A0D000000000A0A0D5665726966A6
:100C800069636174696F6E206661696C6564210ACD
:100C90000D0000000D0A0A41626F727465642062E3
:100CA0007920757365722E0A0D0000000D0A3D3D16
:100CB0003D3D3D3D3D3D3D3D3D20426F6F744C6FA0
:100CC000616465722053797374656D203D3D3D3DCF
:100CD0003D3D3D3D3D3D3D0D0A00000020B0E6B1EB
:100CE000BE3A56312E3031202020202020202020D6
:100CF00020202020202020202020202020202020F4
:100D00002020202020202020200D0A0020285041D3
:100D1000323D3D30292028305830383030343030A2
:100D2000303D3D30584646464646464646292020F8
:100D30002020202020202020200D0A00204D4B20A4
:100D4000555341525430203131353230302020203B
:100D50002020202020202020202020202020202093
:100D60002020202020202020200D0A002049415052
:100D700020416464723A305830383030303030308E
:100D800020202041504920616464723A3058303844
:100D90003030343030302020200D0A00B0B431BD66
:100DA000F8C8EBC9FDBCB62D2D2D2D2D2D2D2D2DCB
:100DB0002D2D2D2D2D2D2D2D2D2D2D2D2D2D2D2D63
:100DC0002D2D2D2D2D2D2D2D310D0A00B0B432D607
:100DD000B4D0D0D3A6D3C3B3CCD0F22D2D2D2D2D8E
:100DE0002D2D2D2D2D2D2D2D2D2D2D2D2D2D2D2D33
:100DF0002D2D2D2D2D2D2D2D320D0A003D3D3D3D4E
:100E00003D3D3D3D3D3D3D3D3D3D3D3D3D3D3D3D12
:100E10003D3D3D3D3D3D3D3D3D3D3D3D3D3D3D3D02
:100E20003D3D3D3D3D3D3D3D3D0D0A00496E7661F8
:100E30006C6964204E756D6265722021203D3D3ED7
:100E400020546865206E756D6265722073686F75D9
:100E50006C64206265206569746865722031206F5A
:100E60007220320D00000000032A40F2308010F0A2
:100E7000030C00F0158011F8013BBCF1020F624435
:100E800098BF11F801CB00F8013B38BF11F8013BC6
:100E9000A2F1040298BF00F801CB38BF00F8013B73
:100EA00011F0030300F02580083AC0F0088051F8E3
:100EB000043B083A51F804CBA0E80810F5E7121DEE
:100EC0005CBF51F8043B40F8043BAFF30080D2070D
:100ED00024BF11F8013B11F801CB48BF11F8012BD9
:100EE00024BF00F8013B00F801CB48BF00F8012BFC
:100EF000704710B5203AC0F00B80B1E81850203A86
:100F0000A0E81850B1E81850A0E81850BFF4F5AFA9
:100F10005FEA027C24BFB1E81850A0E8185044BF33
:100F200018C918C0BDE810405FEA827C24BF51F8A0
:100F3000043B40F8043B08BF7047D20728BF31F894
:100F4000023B48BF11F8012B28BF20F8023B48BFE5
:100F500000F8012B70470446AFF300802046FFF7EE
:100F6000B6F8000000487047180500200149182015
:100F7000ABBEFEE726000200704700009C0F000099
:100F800000000020180000007C000000B40F0000EA
:100F90001800002060090000980000000000800296
:100FA00000000008004000000000000000000000F9
:040FB000000000003D
:0400000500000041B6
:00000001FF
