:020000040000FA
:100000007809FF1F2D0200003502000037020000B2
:10001000390200003B0200003D0200000000000029
:100020000000000000000000000000003F0200008F
:1000300041020000000000004302000045020000F1
:1000400000F002F800F03AF80AA090E8000C8244B0
:100050008344AAF10107DA4501D100F02FF8AFF28D
:10006000090EBAE80F0013F0010F18BFFB1A43F096
:1000700001031847B00F0000D00F0000103A24BF52
:1000800078C878C1FAD8520724BF30C830C144BFFD
:1000900004680C607047000000230024002500263F
:1000A000103A28BF78C1FBD8520728BF30C148BFDB
:1000B0000B6070471FB51FBD10B510BD00F07BF978
:1000C0001146FFF7F7FF00F051FD00F098FF03B471
:1000D000FFF7F2FF03BC00F09DFF00004D484CF21B
:1000E0002051C1814DF62811C1814FF4E971018081
:1000F00049494FF48810486448480621017000219E
:100100004170C27802F03F0242F02002C2700171D9
:1001100041718179C906FCD5817911F00C0FFBD1B1
:10012000704730B53D4908783D4A83094FF4004097
:100130004FF001040FD00B78B4EB931F58D14A78DD
:10014000D2075ED0087AC0F3420104FA01F03549C3
:10015000B1FBF0F055E04B795B063ED40B785B07C2
:1001600010D40B7BDB0700D110460A78C2F3C20221
:1001700004FA02F2D2B2B0FBF2F04A7812F0300F79
:1001800000D04009C97801F0E00111F01F0F38D10B
:100190004911082935D2DFE801F004070B0F1317C6
:1001A0001A1D00EB800005E000EB8000000228E053
:1001B000C0EB0010C00124E000EB8000400220E012
:1001C0004FF4377148431CE04FF4B761FAE740F64B
:1001D0009501F7E740F67131F4E70879497900F0C5
:1001E0001F00401CB2FBF0F001F01F011831E9E7DD
:1001F0000B780225B5EB931F0BD1097BC90700D102
:1002000010460549496C04EB1171B0FBF1F0064949
:10021000086030BD002005400080044000400640DA
:1002200000127A0000093D000000FF1F09488047C6
:1002300009480047FEE7FEE7FEE7FEE7FEE7FEE7C8
:10024000FEE7FEE7FEE7FEE704480549054A044BE2
:1002500070470000DD000000410000007805FF1F2E
:100260007809FF1F7809FF1F4E48017841F070019F
:100270000170017841F08001017001780906FCD518
:10028000007810F0710000D004207047464948689B
:1002900040F400204860886840F4002088604348AB
:1002A0004CF22052C2814DF62812C28100220280F7
:1002B0003C4802789206027802D542F020020AE019
:1002C000D206027802D542F0100204E0520603D5AD
:1002D000027842F040020270486820F01000486046
:1002E000886820F010008860704710B5002302E095
:1002F000C45CD4545B1C8B42FAD310BD2DE9F04191
:10030000C40228480F4606211546C17100268046C2
:100310001DE0210C88F80610210A88F8051088F8DD
:100320000440E97888F80B10A97888F80A106978F1
:1003300088F8091015F8041B88F80810241DFFF729
:1003400093FF10B10420BDE8F081361DB6B2BE4265
:10035000DFD30020F7E7134A10B50623D371030C4F
:100360009371030A53711071080ED072080C9072C9
:10037000080A50721172FFF777FF002800D004209E
:1003800010BD084910B5C0020922CA71020C8A7159
:10039000020A4A710871FFF767FF002800D00420A5
:1003A00010BD00000000024000F0014000200540A8
:1003B000704770477047754600F028FEAE4605004E
:1003C0006946534620F00700854618B020B5FFF770
:1003D0003BFFBDE820404FF000064FF000074FF014
:1003E00000084FF0000B21F00701AC46ACE8C00953
:1003F000ACE8C009ACE8C009ACE8C0098D4670475C
:10040000FFFFFFFFFFFFFFFFFFFFFFFFFEFFFFFFFD
:10041000F0B50179002201F0070C051DC44EC54F4F
:10042000C5491446BCF1050F21D2DFE80CF00309E1
:100430000F151B004A6B42F480624A63324616E095
:100440004A6B42F400624A633A4610E04A6B42F457
:1004500080524A63B94A0AE04A6B42F400524A6346
:10046000B74A04E08A6A42F480628A62B54A2B88FD
:10047000C3F3821CBCF1050F21D2DFE80CF00309A5
:100480000F151B008B6B43F400738B63AE4C16E0AF
:100490008B6B43F480638B63AC4C10E08B6B43F449
:1004A00000638B63AA4C0AE08B6B43F480538B632D
:1004B000A84C04E08B6B43F400538B63A64C2B6871
:1004C000C3F3843354F823C02CF4E06C44F823C005
:1004D000D5F800C0CCF3843354F823E0CCF3C20C3D
:1004E0004EEA0C2C44F823C02B88C3F3442354F861
:1004F00023C02CF4E06C44F823C02D88C5F34423BA
:1005000054F823C0C5F3C2054CEA052544F823502E
:10051000496C924BC1F30361491C1B68B242B3FBA7
:10052000F1F101D0BA4200D1194603681801B1FBBC
:10053000F0F04900B1FBF3F1434201EB43111378B2
:10054000C0F30424234313705070907A01F01F010C
:1005500008439072D07820F00C00D070907820F092
:1005600010009070907820F002009070507920F088
:1005700020005071D07840F00C00D070F0BD1CB558
:10058000FFF7CFFDFFF782FE4FF4E1300090744893
:1005900001906846FFF73CFF1CBD69490A791206C5
:1005A000FCD5C871704766490A79920603D5C979A6
:1005B0000170012070470020704730B5694D836895
:1005C00000215C1B5C4AAB4230D005DC664C1C1938
:1005D00007D0402C0FD109E0402C2CD0802C0AD120
:1005E0002EE05949946B44F4007403E05749946B2E
:1005F00044F480649463028851F8224024F4E06457
:1006000041F82240028851F8224044F4807441F8B5
:10061000224004790122072C17D0082C15D0042C75
:100620003DD0052C3BD0062C39D066E04849946B70
:1006300044F40064DEE74749946B44F48054D9E7FE
:100640004549946B44F40054D4E75C69057802FA98
:1006500005F52C435C61048851F8245025F002050F
:1006600041F824508478012C1C68057802FA05F2C0
:1006700007D094431C600279072A04D0082A08D0C6
:100680003BE01443F6E7028851F8223043F02003A0
:1006900031E0028851F8223023F020032BE05C691E
:1006A0000578AA4094435C610279042A04D0052AA3
:1006B00008D0062A13D020E0028851F8223023F017
:1006C000020318E0028851F8223043F0020341F897
:1006D0002230028851F8223023F001030BE0028817
:1006E00051F8223043F0020341F82230028851F8D9
:1006F000223043F0010341F82230028851F82230C1
:1007000023F4702341F82230028851F82230C07857
:100710004FF4702404EA0040034341F8223030BD16
:10072000104880380069C008C00700D00120704719
:1007300000A0064000B006400080044000C0064013
:1007400000D0064000A00E400090044000A00440ED
:1007500000B0044000C0044000D004400000FF1F6F
:100760001B0B010080F00F400010F0BF2DE9F04F8F
:100770004FF0000BADF2244D9F4C80464FF480406B
:10078000CDF808B460605D465F464FF480094FF0D5
:10079000FF3ACDF810B400264A460DF20C416846E7
:1007A00000F0CAF888B101286DD0002F00DD6D1C63
:1007B000052D69DD1820FFF7F0FE1820FFF7EDFE8C
:1007C00000200DF2244DBDE8F08FDDF80C2400254B
:1007D000524507D042B19DF80100F1B288420BD0DA
:1007E0001520A6E00620E9E70620FFF7D6FEDDF893
:1007F00010040028CFD066E046B10DF10301404659
:1008000000F086FB0027C4F8108077E09DF8030015
:10081000C0B300210DF10300784B02E05A54401C94
:10082000491C02780AB1FF29F8DD03F801B0002164
:100830005F46401C0DF2144302E05A54401C491C10
:100840000278202A01D01029F7DB5F540DF5816171
:10085000184600F0D5F8DDF80804B0F5703F07DB66
:100860001820FFF79AFE1820FFF797FE5046A8E7DA
:1008700041054FEAE07100EB515006D0012101EB38
:10088000E02003E01CE04AE052E0C012C4E902703C
:1008900038460AE062886168B1FBF2F10844FFF76C
:1008A00070FD2770A068401CA060E168884202D2F9
:1008B00021780029EED00620FFF76FFE432029E0C3
:1008C0000620FFF76AFEDDF808047AE72169096867
:1008D000FFF741FD616820690A6803689A4208D001
:1008E0001820FFF75AFE1820FFF757FE6FF001009F
:1008F00067E7091D001D61603F1D2061DDF80C04E4
:10090000874206DADDF80814606801F58041884204
:10091000DCD30620FFF741FE761C01273CE71820B8
:10092000FFF73BFE1820FFF738FE6FF0020048E7A4
:100930004320FFF732FE2FE72DE9F84F88460021CC
:100940000646C8F8001092461146684600F040F886
:100950004FF0FF39B0BB9DF80000182814D006DC1A
:10096000012809D0022809D004282BD12EE04128E3
:1009700016D0612826D113E0802401E04FF4806472
:1009800001253070671D15E05146684600F020F8DB
:10099000C0B99DF80000182814D1C8F8009015E0DF
:1009A0000120BDE8F88F7019514600F011F848B9E0
:1009B0006D1CADB2BD42F6D3B178707881F0FF0105
:1009C000884201D04846ECE7C8F800400020E8E73C
:1009D00038B50C46054604E06846FFF7E4FD0128FB
:1009E00004D0641EF8D24FF0FF3038BD9DF80000EF
:1009F0002870002038BD00000400FF1F1800FF1FF2
:100A000070B5002204781346302C04D14478782C39
:100A10000AD0582C08D06FF02F05845C74B36B2C6F
:100A20002ED04B2C2CD030E082780AB30224025D09
:100A30005AB1A2F14105052D0AD9A2F16106052E90
:100A400006D91135092D07D913E001200B6011E0FB
:100A5000A2F13006092E01D8303A04E0052D01D864
:100A6000373A00E0573A641C02EB03130B2CDED339
:100A700002E000200B2C00D3002070BD0B6002E0D0
:100A80001AB1980207E0012015E06D2C01D04D2C21
:100A900003D112B118050860F5E7A4F13006092E5C
:100AA00008D803EB830305EB4303521C23440B2AB2
:100AB000B3D3E1E700200B2ADED270BD10B50446A7
:100AC00003E000BFFFF769FD641C20780028F9D11E
:100AD00010BD70B54FF480456C6840A0FFF7EEFF85
:100AE000286880F30888A446BDE87040604710B5C8
:100AF0003EA0FFF7E3FF4C48FFF738FE002805DD76
:100B00004A48FFF7DBFFBDE81040E2E7411C07D091
:100B1000811C07D0C01C07D045A0BDE81040CDE720
:100B20004BA0FAE75AA0F8E760A0F6E76548816BAA
:100B300041F4006181636448016B21F4E061016369
:100B4000016B41F48071016360494A6942F480524B
:100B50004A61026B22F0020202630A6842F4805288
:100B60000A60016B21F020010163704708B5002481
:100B7000FFF7DCFFFFF703FD55A0FFF79FFF64A021
:100B8000FFF79CFF72A0FFF799FF81A0FFF796FF88
:100B90008FA0FFF793FF9EA0FFF790FFACA0FFF799
:100BA0008DFFBBA0FFF78AFFC94D6846FFF7FBFC2E
:100BB00040B19DF8000031280AD032280BD0C5A0E2
:100BC000FFF77CFF641CAC42EFD9FFF782FFECE734
:100BD000FFF78DFFF6E7FFF77CFFF3E70D0A476F9E
:100BE00020746F20417069210D0A00000D0AC7EBC7
:100BF000CAB9D3C3596D6F64656DD0ADD2E9B4ABDA
:100C0000CBCD42696ECEC4BCFE2E2E2E2E2E2E2EA5
:100C10002E2870726573732027612720746F2061FE
:100C2000626F7274290D0A001801FF1F1800FF1F60
:100C30000A0D4661696C656420746F207265636596
:100C4000697665207468652066696C65210A0D0007
:100C50000A0A0D54686520696D6167652073697AB9
:100C60006520697320686967686572207468616EC1
:100C70002074686520616C6C6F77656420737061A7
:100C80006365206D656D6F7279210A0D00000000AB
:100C90000A0A0D566572696669636174696F6E2030
:100CA0006661696C6564210A0D0000000D0A0A4145
:100CB000626F7274656420627920757365722E0AA2
:100CC0000D0000000080044000B0044080F00F40A0
:100CD0000D0A3D3D3D3D3D3D3D3D3D3D3D3D3D3DA7
:100CE000426F6F744C6F61646572205379737465E1
:100CF0006D203D3D3D3D3D3D3D3D3D3D3D3D3D3D11
:100D00003D3D3D3D3D3D3D3D3D3D3D0D0A0000002D
:100D100020B0E6B1BE3A56312E30312020202020BE
:100D200020202020202020202020202020202020C3
:100D300020202020202020202020202020202020B3
:100D4000202020202020202020200D0A000000004C
:100D500020285041323D3D3029202830583038304D
:100D600030343030303D3D305846464646464646A3
:100D70004629202020202020202020202020202044
:100D8000202020202020202020200D0A000000000C
:100D9000204D4B32304B313020555341525430208E
:100DA00031313532303020202020202020202020DA
:100DB0002020202020202020202020202020202033
:100DC000202020202020202020200D0A00000000CC
:100DD0002049415220537461727420416464723A14
:100DE00030583038303030303030202020415049B9
:100DF00020537461727420616464723A30583038E0
:100E0000303034303030202020200D0A0000000027
:100E1000B0B431BDF8C8EBC9FDBCB62D2D2D2D2DBC
:100E20002D2D2D2D2D2D2D2D2D2D2D2D2D2D2D2DF2
:100E30002D2D2D2D2D2D2D2D2D2D2D2D2D2D2D2DE2
:100E40002D2D2D2D2D2D2D2D20310D0A00000000D2
:100E5000B0B432D6B4D0D0D3A6D3C3B3CCD0F22D55
:100E60002D2D2D2D2D2D2D2D2D2D2D2D2D2D2D2DB2
:100E70002D2D2D2D2D2D2D2D2D2D2D2D2D2D2D2DA2
:100E80002D2D2D2D2D2D2D2D20320D0A0000000091
:100E90003D3D3D3D3D3D3D3D3D3D3D3D3D3D3D3D82
:100EA0003D3D3D3D3D3D3D3D3D3D3D3D3D3D3D3D72
:100EB0003D3D3D3D3D3D3D3D3D3D3D3D3D3D3D3D62
:100EC0003D3D3D3D3D3D3D3D3D3D0D0A00000000A9
:100ED00080969800496E76616C6964204E756D62EB
:100EE00065722021203D3D3E20546865206E756D61
:100EF0006265722073686F756C6420626520656935
:100F0000746865722031206F7220320D000000007D
:100F1000032A40F2308010F0030C00F0158011F825
:100F2000013BBCF1020F624498BF11F801CB00F8FD
:100F3000013B38BF11F8013BA2F1040298BF00F851
:100F400001CB38BF00F8013B11F0030300F025800E
:100F5000083AC0F0088051F8043B083A51F804CB35
:100F6000A0E80810F5E7121D5CBF51F8043B40F8FB
:100F7000043BAFF30080D20724BF11F8013B11F806
:100F800001CB48BF11F8012B24BF00F8013B00F84A
:100F900001CB48BF00F8012B704710B5203AC0F0D4
:100FA0000B80B1E81850203AA0E81850B1E818506A
:100FB000A0E81850BFF4F5AF5FEA027C24BFB1E8A7
:100FC0001850A0E8185044BF18C918C0BDE8104018
:100FD0005FEA827C24BF51F8043B40F8043B08BF21
:100FE0007047D20728BF31F8023B48BF11F8012BE8
:100FF00028BF20F8023B48BF00F8012B7047044689
:10100000AFF300802046FFF762F800000048704709
:101010001805FF1F01491820ABBEFEE7260002009D
:1010200070470000441000000000FF1F180000007F
:101030007C0000005C1000001800FF1F6009000029
:10104000980000000000800200000008004000003E
:0C10500000000000000000000000000094
:0400000500000041B6
:00000001FF
